:020000040800F2
:100000000050002021020008270200082B020008EF
:1000100043020008470200085F02000800000000D9
:10002000000000000000000000000000770200084F
:100030007B020008000000007F020008750800082D
:100040009102000891020008910200089102000844
:100050009102000891020008910200089102000834
:100060009102000891020008910200089102000824
:100070009102000891020008910200089102000814
:100080009102000891020008910200089102000804
:1000900091020008910200089102000891020008F4
:1000A00091020008910200089102000891020008E4
:1000B00091020008910200089102000891020008D4
:1000C00091020008910200089102000891020008C4
:1000D000910200081D090008910200089102000821
:1000E000910200089102000891020008000000003F
:1000F0000000000000000000000000000000000000
:1001000000000000000000005FF808F100B583B0B7
:1001100000F0DEF8304B314A1360314A1360314B46
:10012000314A32498B4204D21168196004330432D7
:10013000F7E72A4B1A682E4B9A4200D0FEE7284B6D
:100140001A682C4B9A42F9D1234B2B4A13602B4A45
:1001500013602B4B02E000221A600433294A9342B9
:10016000F9D3254B1B6813B9244B1B6803B1FEE779
:1001700000F0BAF8694601A800F0A2F8224C234B1F
:10018000E41AA4100025AC4214DC214C214BE41AE3
:10019000A4100025AC4213DC0099019800F08CFCFF
:1001A00005461D4C1D4BE41AA410002C0EDC2846FD
:1001B00000F084F8154B53F8253098470135E2E7F5
:1001C000144B53F8253098470135E3E7013C134BB6
:1001D00053F824309847E8E7BABADECA0000002096
:1001E0002800002000000020E00B00082C00002068
:1001F00078563412325476982C000020D801002012
:100200002C000020DC010020BC020008BC02000819
:10021000BC020008BC020008BC020008BC020008C6
:1002200008B5FFF773FF00BEFEE71EF0040F0CBF1A
:10023000EFF30880EFF309807146124A104700BEC1
:10024000FEE700BEFEE71EF0040F0CBFEFF30880D0
:10025000EFF3098071460C4A104700BEFEE71EF01E
:10026000040F0CBFEFF30880EFF309807146074AD3
:10027000104700BEFEE700BEFEE700BEFEE700BE80
:10028000FEE770473F0200085B02000873020008A7
:0402900000BEFEE7C7
:10029400E00B0008000000202C000020E00B000808
:1002A40000000000000000002C000020DC01002001
:0802B400000000000000000042
:1002BC00FEE7000001230360014B0B60704700BF99
:1002CC000400002008B500F073F8024A024B9A6053
:1002DC0008BD00BF0000000800ED00E008B500F00C
:1002EC008FF808BD82B00023019300932C4A136849
:1002FC0043F4803313602A4B1B6803F400330093E0
:10030C00019B01330193009B1BB9019BB3F5A06FBB
:10031C00F1D1234B1B6813F4003F06D0012300934B
:10032C00009B012B04D002B0704700230093F7E729
:10033C001C4B1A6842F010021A601A6822F0030271
:10034C001A601A6842F002021A60A3F580535A68C8
:10035C005A605A685A605A6842F480625A605A6805
:10036C0022F47C125A605A6842F4E8125A601A68F5
:10037C0042F080721A600A4B1B6813F0007FFAD0AF
:10038C00074B5A6822F003025A605A6842F0020284
:10039C005A60034B5B6803F00C03082BF9D1C2E7DE
:1003AC00001002400020024008B5FFF79BFF08BD7B
:1003BC0008B5104B1A6842F001021A6059680E4ACF
:1003CC000A405A601A6822F0847222F480321A6051
:1003DC001A6822F480221A605A6822F4FE025A60CB
:1003EC004FF41F029A60FFF7DFFF044B4FF00062DF
:1003FC009A6008BD001002400000FFF800ED00E01C
:10040C001F4B5B6803F00C03042B15D0082B17D083
:10041C001BB11C4B1C4A1A6002E01A4B1A4A1A6098
:10042C00174B5B68C3F30313184AD35CDAB2154954
:10043C000B68D3400B607047124B134A1A60EFE7FE
:10044C000F4A53685268C3F38343023312F4803F5C
:10045C000AD00B4A526812F4003F0BD00C4A02FB34
:10046C0003F3084A1360DBE7094A02FB03F3054A6E
:10047C001360D5E7044A02FB03F3024A1360CFE78B
:10048C00001002401C00002000127A000C0000201A
:10049C0000093D0010B4012824D018B1022841D025
:1004AC0010BC7047072910D90F29F9D8A1F10804FD
:1004BC00E4B2A4000F23A3402A48016821EA0303F5
:1004CC0002FA04F119430160EAE789000F2303FAE9
:1004DC0001F0254C236823EA000302FA01F11943C9
:1004EC002160DDE7072910D90F29D9D8A1F108001F
:1004FC00C0B280000F2383401C4C216821EA030307
:10050C0002FA00F119432160CAE789000F2303FAAC
:10051C0001F0174C236823EA000302FA01F1194396
:10052C002160BDE7072910D90F29B9D8A1F108031B
:10053C00DBB29B000F2098400E4C216821EA000092
:10054C0002FA03F101432160AAE789000F2303FAA1
:10055C0001F0094C236823EA000302FA01F1194364
:10056C0021609DE70408014000080140040C014093
:10057C00000C01400410014000100140154BDB68D9
:10058C0013F0010FFAD1134B1B6913F0800F05D038
:10059C00104B114A5A6002F188325A600D4B1A699D
:1005AC0042F002021A61800200F1006058611A697F
:1005BC0042F040021A61074BDB6813F0010FFAD1CD
:1005CC00044BDA6842F02002DA601A6922F0020267
:1005DC001A617047002002402301674510B50424BE
:1005EC0004E02046FFF7CAFF0134E4B23F2CF8D9EF
:1005FC0010BD000030B482B0184BDB6813F0010F53
:10060C00FAD1164B1B6913F0800F05D0134B144C09
:10061C005C6004F188345C6000241AE00F4D2B6997
:10062C0043F001032B6131F81430ADF8063020F89B
:10063C00023B0A4BDB6813F0010FFAD1074BDD6864
:10064C0045F02005DD601D6925F001051D610134B3
:10065C00E4B29442E2D302B030BC704700200240B6
:10066C002301674500F01F02400901239340024A11
:10067C0042F82030704700BF00E100E000F01F029C
:10068C004009012393402030014A42F82030704742
:10069C0000E100E010B41E4C1C44240A01FA04F4DE
:1006AC001443E4B200280BDB2401E4B200F16040F7
:1006BC0000F5614080F80043164AD36010BC7047C7
:1006CC00C1B2CA1CD2B2012A12D9B0F1FF3F0FD06D
:1006DC0010F1040F13D08A1DD2B2012AECD801F10B
:1006EC00080252B2D200043294400A4A1462E3E780
:1006FC0052B2D20004329440064A9461DCE7CA1D1F
:10070C0052B2D20004329440024AD461D4E700BF02
:10071C0000FD05FA00ED00E00246A0F13003D8B26E
:10072C00092802D9A2F13700C0B270472DE9F84F61
:10073C0006464078FFF7F0FF0746B078FFF7ECFF6E
:10074C0040EA0717FFB2F078FFF7E6FF044630796E
:10075C00FFF7E2FF05467079FFF7DEFF8046B079C0
:10076C00FFF7DAFF1F4A538840EA034040EA0818B3
:10077C0048EA052848EA0438C2F80080002527E03A
:10078C004FEA850B0BF10903F05CFFF7C5FF8146BF
:10079C000BF10A03F05CFFF7BFFF82460BF10B0372
:1007AC00F05CFFF7B9FF04460BF10C0B16F80B00CD
:1007BC00FFF7B2FF240344EA002000B240EA0A002B
:1007CC0000B240EA0910084B23F815000135EDB2D0
:1007DC007A08AA42D4D804494046FFF70BFFBDE87B
:1007EC00F88F00BF200000203400002008B5037AE9
:1007FC00302B00D008BDFFF799FFFBE7034B81229C
:10080C001A60043300221A60704700BF00100240C7
:10081C001F291CD801280BD010B1022810D070470A
:10082C00012303FA01F10A4A13680B431360704762
:10083C00012303FA01F1074A13680B431360704755
:10084C00012303FA01F1044A13680B431360704748
:10085C00141002401C10024018100240014B0022E0
:10086C001A60704710E000E008B50A4B1B785BB9C2
:10087C00094B1A6822F002021A601A6842F001024F
:10088C001A6000225A609A60044B1B689847024B0E
:10089C001B6808BD0001002010E000E0FC000020F7
:1008AC000B4B40F241329A60DA6842F00802DA608F
:1008BC00DA6842F00402DA60DA6842F40052DA6074
:1008CC00DA6842F02002DA6000221A60704700BF3A
:1008DC0000380140002208E006494B60054B1B68BC
:1008EC0013F0400FFAD00132D2B2835C002BF3D15B
:1008FC00704700BF00380140014B5868C0B27047C8
:10090C0000380140014B1860704700BF0C010020FB
:10091C0008B5024B1B68984708BD00BF0C010020AE
:10092C0008B5FFF7E9FF0D280AD00A2808D0054AB8
:10093C001378DBB20449C85413780133DBB213705B
:10094C0008BD00BF080100201001002008B5044BB1
:10095C00044A1A60044B1B68044A1360984708BD8C
:10096C0008ED00E00010000804100008040100204D
:10097C00002303E0044A0021D1540133C72BF9DDD5
:10098C00024B00221A707047100100200801002051
:10099C00002300E00133C72B16DC0C4AD25CD2B228
:1009AC00572AF7D15A1C09498A5CD2B2492AF1D18B
:1009BC009A1C8A5CD2B2462AECD1DA1C8A5CD2B27E
:1009CC00492AE7D101207047002070471001002010
:1009DC0010B5002414E0631C194AD35CDBB24E2B17
:1009EC0015D1012010BD631C154AD35CDBB2562B0C
:1009FC0012D10234E4B2134B1C700220F2E7013422
:100A0C00632C1ADC0E4B1B5DDBB2442BE3D00C4B7E
:100A1C001B5DDBB2412BE6D0094B1B5DDBB24E2BD1
:100A2C00EDD1631C064AD35CDBB24F2BE7D12520FA
:100A3C00FFF724FEFFF78AFFE1E70020D2E700BFB3
:100A4C00100100200A01002010B5002400E0013440
:100A5C00632C1ADC0E4B1B5DDBB2642BF7D1631CD1
:100A6C000B4AD35CDBB26F2BF1D1A31CD35CDBB292
:100A7C006E2BECD1E31CD35CDBB2652BE7D12520CC
:100A8C00FFF7FCFDFFF762FFE1E7002010BD00BFA0
:100A9C0010010020002201E000BF01324FF49673D8
:100AAC0003FB00F39342F7D87047000070B5FFF7D3
:100ABC00A5FE0E210220FFF7ABFE02210846FFF730
:100ACC00A7FE04210020FFF7A3FE0A220921002023
:100ADC00FFF7E0FC04220A210020FFF7DBFC2F4B80
:100AEC00002201212520FFF7D5FD2520FFF7BAFDB7
:100AFC00FFF7D6FEFFF7B2FE2948FFF703FF0025EC
:100B0C002C462E460DE0FFF743FF0446012CFAD18C
:100B1C0066B142F21070FFF7BDFFFFF759FF0228D4
:100B2C0016D0204B1B78002BF0D070BD1E4B002232
:100B3C001A70FFF71DFF1D48FFF7CCFE2646E8E7AD
:100B4C004FF41670FFF7A6FFFFF742FF012812D0F3
:100B5C00002DE6D1FFF70CFF1548FFF7BBFE154B38
:100B6C001B78002BECD142F21070FFF793FF114B66
:100B7C0001221A70E4E7104B1B78DBB2012B06D074
:100B8C000E48FFF733FEFFF75FFF0546E0E7FFF780
:100B9C0025FD094B00221A70F2E700BF0003FA058D
:100BAC002D0900080901002008010020CC0B0008C9
:100BBC00DC0B0008010100202400002010010020A3
:100BCC005550444154455F545249474745520000E3
:040BDC006F6B0A0031
:100BE00078563412300000200000000000000000A1
:100BF00000000000010203040607080900A24A04DD
:0C0C00000000000801FFFFFF325476984E
:040000050800010DE1
:00000001FF
